{
  "contractName": "Election",
  "abi": [
    {
      "inputs": [
        {
          "internalType": "address",
          "name": "_admin",
          "type": "address"
        }
      ],
      "payable": false,
      "stateMutability": "nonpayable",
      "type": "constructor"
    },
    {
      "anonymous": false,
      "inputs": [
        {
          "indexed": false,
          "internalType": "uint256",
          "name": "candidateId",
          "type": "uint256"
        }
      ],
      "name": "candidateAdded",
      "type": "event"
    },
    {
      "anonymous": false,
      "inputs": [
        {
          "indexed": false,
          "internalType": "bool",
          "name": "status",
          "type": "bool"
        }
      ],
      "name": "statusChanged",
      "type": "event"
    },
    {
      "anonymous": false,
      "inputs": [
        {
          "indexed": true,
          "internalType": "uint256",
          "name": "_candidateId",
          "type": "uint256"
        }
      ],
      "name": "votedEvent",
      "type": "event"
    },
    {
      "constant": true,
      "inputs": [],
      "name": "admin",
      "outputs": [
        {
          "internalType": "address",
          "name": "",
          "type": "address"
        }
      ],
      "payable": false,
      "stateMutability": "view",
      "type": "function"
    },
    {
      "constant": true,
      "inputs": [
        {
          "internalType": "uint256",
          "name": "",
          "type": "uint256"
        }
      ],
      "name": "candidates",
      "outputs": [
        {
          "internalType": "uint256",
          "name": "id",
          "type": "uint256"
        },
        {
          "internalType": "string",
          "name": "name",
          "type": "string"
        },
        {
          "internalType": "uint256",
          "name": "voteCount",
          "type": "uint256"
        }
      ],
      "payable": false,
      "stateMutability": "view",
      "type": "function"
    },
    {
      "constant": true,
      "inputs": [],
      "name": "candidatesCount",
      "outputs": [
        {
          "internalType": "uint256",
          "name": "",
          "type": "uint256"
        }
      ],
      "payable": false,
      "stateMutability": "view",
      "type": "function"
    },
    {
      "constant": true,
      "inputs": [],
      "name": "isOnGoing",
      "outputs": [
        {
          "internalType": "bool",
          "name": "",
          "type": "bool"
        }
      ],
      "payable": false,
      "stateMutability": "view",
      "type": "function"
    },
    {
      "constant": true,
      "inputs": [
        {
          "internalType": "address",
          "name": "",
          "type": "address"
        }
      ],
      "name": "voters",
      "outputs": [
        {
          "internalType": "bool",
          "name": "",
          "type": "bool"
        }
      ],
      "payable": false,
      "stateMutability": "view",
      "type": "function"
    },
    {
      "constant": false,
      "inputs": [
        {
          "internalType": "bool",
          "name": "_status",
          "type": "bool"
        }
      ],
      "name": "changeElectionStatus",
      "outputs": [],
      "payable": false,
      "stateMutability": "nonpayable",
      "type": "function"
    },
    {
      "constant": false,
      "inputs": [
        {
          "internalType": "string",
          "name": "_name",
          "type": "string"
        }
      ],
      "name": "addCandidate",
      "outputs": [],
      "payable": false,
      "stateMutability": "nonpayable",
      "type": "function"
    },
    {
      "constant": false,
      "inputs": [
        {
          "internalType": "uint256",
          "name": "_candidateId",
          "type": "uint256"
        }
      ],
      "name": "vote",
      "outputs": [],
      "payable": false,
      "stateMutability": "nonpayable",
      "type": "function"
    }
  ],
  "bytecode": "0x608060405234801561001057600080fd5b5060405161066e38038061066e8339818101604052602081101561003357600080fd5b5051600080546001600160a01b0390921661010002610100600160a81b03199092169190911790556106048061006a6000396000f3fe608060405234801561001057600080fd5b50600436106100885760003560e01c80633c62e3c11161005b5780633c62e3c114610185578063462e91ec146101a4578063a3ec138d14610214578063f851a4401461023a57610088565b80630121b93f1461008d5780632d35a8a2146100ac5780633453cba9146100c65780633477ee2e146100e2575b600080fd5b6100aa600480360360208110156100a357600080fd5b503561025e565b005b6100b4610306565b60408051918252519081900360200190f35b6100ce61030c565b604080519115158252519081900360200190f35b6100ff600480360360208110156100f857600080fd5b5035610315565b6040518084815260200180602001838152602001828103825284818151815260200191508051906020019080838360005b83811015610148578181015183820152602001610130565b50505050905090810190601f1680156101755780820380516001836020036101000a031916815260200191505b5094505050505060405180910390f35b6100aa6004803603602081101561019b57600080fd5b503515156103c0565b6100aa600480360360208110156101ba57600080fd5b8101906020810181356401000000008111156101d557600080fd5b8201836020820111156101e757600080fd5b8035906020019184600183028401116401000000008311171561020957600080fd5b509092509050610428565b6100ce6004803603602081101561022a57600080fd5b50356001600160a01b031661050b565b610242610520565b604080516001600160a01b039092168252519081900360200190f35b60005460ff16151560011461027257600080fd5b3360009081526001602052604090205460ff161561028f57600080fd5b6000811180156102a157506003548111155b6102aa57600080fd5b336000908152600160208181526040808420805460ff19168417905584845260029182905280842090910180549092019091555182917ffff3c900d938d21d0990d786e819f29b8d05c1ef587b462b939609625b684b1691a250565b60035481565b60005460ff1681565b60026020818152600092835260409283902080546001808301805487519281161561010002600019011695909504601f81018590048502820185019096528581529094919390929091908301828280156103b05780601f10610385576101008083540402835291602001916103b0565b820191906000526020600020905b81548152906001019060200180831161039357829003601f168201915b5050505050908060020154905083565b60005461010090046001600160a01b031633146103dc57600080fd5b6000805460ff191682151517908190556040805160ff90921615158252517f59e1c055b11194dcdfb37c0c467e84048c0a2931342ec169e6a5cc48009a8151916020908290030190a150565b60005461010090046001600160a01b0316331461044457600080fd5b60038054600101908190556040805160608101825291825280516020601f850181900481028201810190925283815281830191859085908190840183828082843760009201829052509385525050506020918201819052600354815260028252604090208251815582820151805191926104c692600185019290910190610534565b50604091820151600290910155600354815190815290517f58b6df71f7457b483a796c1077e42ea827427ecccb2156d374fe8e03524ccdc59181900360200190a15050565b60016020526000908152604090205460ff1681565b60005461010090046001600160a01b031681565b828054600181600116156101000203166002900490600052602060002090601f016020900481019282601f1061057557805160ff19168380011785556105a2565b828001600101855582156105a2579182015b828111156105a2578251825591602001919060010190610587565b506105ae9291506105b2565b5090565b6105cc91905b808211156105ae57600081556001016105b8565b9056fea265627a7a72315820808f0ce03cbffe154a078a593fd2f4cbe91788791a64b1a46d0cf65037e9a73664736f6c63430005100032",
  "source": "pragma solidity >=0.4.22 <0.8.0;\n\ncontract Election {\n    bool public isOnGoing;\n    address public admin;\n    modifier OnlyAdmin() {\n        require(admin==msg.sender);\n        _;\n    }\n     modifier OnlyRuningElection() {\n        require(isOnGoing==true);\n        _;\n    }\n    event statusChanged(bool status);\n    \n    function changeElectionStatus(bool _status) external OnlyAdmin {\n        isOnGoing=_status;\n        emit statusChanged(isOnGoing);\n    }\n    constructor(address _admin) public {\n        admin= _admin;\n    }\n    // Model a Candidate\n    struct Candidate {\n        uint id;\n        string name;\n        uint voteCount;\n    }\n\n    // Store accounts that have voted\n    mapping(address => bool) public voters;\n    // Store Candidates\n    // Fetch Candidate\n    mapping(uint => Candidate) public candidates;\n    // Store Candidates Count\n    uint public candidatesCount;\n\n    // voted event\n    event votedEvent (\n        uint indexed _candidateId\n    );\n    \n    //candidate event \n    event candidateAdded(uint candidateId);\n    function addCandidate (string calldata _name) external OnlyAdmin {\n        candidatesCount ++;\n        candidates[candidatesCount] = Candidate(candidatesCount, _name, 0);\n        //Trigger the event\n        emit candidateAdded(candidatesCount);\n    }\n\n    function vote (uint _candidateId) public OnlyRuningElection {\n        // require that they haven't voted before\n        require(!voters[msg.sender]);\n\n        // require a valid candidate\n        require(_candidateId > 0 && _candidateId <= candidatesCount);\n\n        // record that voter has voted\n        voters[msg.sender] = true;\n\n        // update candidate vote Count\n        candidates[_candidateId].voteCount ++;\n\n        // trigger voted event\n        emit votedEvent(_candidateId);\n    }\n}",
  "sourcePath": "/Users/nitinchauhan/voting-block/contracts/Election.sol",
  "compiler": {
    "name": "solc",
    "version": "0.5.16+commit.9c3226ce.Emscripten.clang"
  },
  "schemaVersion": "3.3.1",
  "updatedAt": "2020-12-27T13:13:19.298Z",
  "devdoc": {
    "methods": {}
  },
  "userdoc": {
    "methods": {}
  }
}