{
  "contractName": "Voting",
  "abi": [
    {
      "constant": true,
      "inputs": [
        {
          "internalType": "uint256",
          "name": "",
          "type": "uint256"
        }
      ],
      "name": "events_array",
      "outputs": [
        {
          "internalType": "uint256",
          "name": "eventId",
          "type": "uint256"
        },
        {
          "internalType": "string",
          "name": "eventName",
          "type": "string"
        },
        {
          "internalType": "address",
          "name": "smartContractId",
          "type": "address"
        }
      ],
      "payable": false,
      "stateMutability": "view",
      "type": "function"
    },
    {
      "constant": false,
      "inputs": [
        {
          "internalType": "string",
          "name": "_name",
          "type": "string"
        }
      ],
      "name": "addNewEvent",
      "outputs": [],
      "payable": false,
      "stateMutability": "nonpayable",
      "type": "function"
    }
  ],
  "bytecode": "0x608060405234801561001057600080fd5b50610913806100206000396000f3fe608060405234801561001057600080fd5b50600436106100365760003560e01c80632e2f94521461003b578063f8c267c4146100f0575b600080fd5b6100586004803603602081101561005157600080fd5b5035610162565b6040518084815260200180602001836001600160a01b03166001600160a01b03168152602001828103825284818151815260200191508051906020019080838360005b838110156100b357818101518382015260200161009b565b50505050905090810190601f1680156100e05780820380516001836020036101000a031916815260200191505b5094505050505060405180910390f35b6101606004803603602081101561010657600080fd5b81019060208101813564010000000081111561012157600080fd5b82018360208201111561013357600080fd5b8035906020019184600183028401116401000000008311171561015557600080fd5b509092509050610215565b005b600060208181529181526040908190208054600180830180548551600293821615610100026000190190911692909204601f81018790048702830187019095528482529194929390928301828280156101fc5780601f106101d1576101008083540402835291602001916101fc565b820191906000526020600020905b8154815290600101906020018083116101df57829003601f168201915b505050600290930154919250506001600160a01b031683565b6001805481019055604051339060009082906102309061031a565b6001600160a01b03909116815260405190819003602001906000f08015801561025d573d6000803e3d6000fd5b50905060008190506040518060600160405280600154815260200186868080601f01602080910402602001604051908101604052809392919081815260200183838082843760009201829052509385525050506001600160a01b03841660209283015260018054825281835260409091208351815583830151805191936102e993850192910190610327565b5060409190910151600290910180546001600160a01b0319166001600160a01b039092169190911790555050505050565b61051c806103c383390190565b828054600181600116156101000203166002900490600052602060002090601f016020900481019282601f1061036857805160ff1916838001178555610395565b82800160010185558215610395579182015b8281111561039557825182559160200191906001019061037a565b506103a19291506103a5565b5090565b6103bf91905b808211156103a157600081556001016103ab565b9056fe608060405234801561001057600080fd5b5060405161051c38038061051c8339818101604052602081101561003357600080fd5b5051600080546001600160a01b039092166001600160a01b03199092169190911790556104b7806100656000396000f3fe608060405234801561001057600080fd5b50600436106100575760003560e01c80630121b93f1461005c5780632d35a8a21461007b5780633477ee2e14610095578063462e91ec14610138578063a3ec138d146101a8575b600080fd5b6100796004803603602081101561007257600080fd5b50356101e2565b005b610083610276565b60408051918252519081900360200190f35b6100b2600480360360208110156100ab57600080fd5b503561027c565b6040518084815260200180602001838152602001828103825284818151815260200191508051906020019080838360005b838110156100fb5781810151838201526020016100e3565b50505050905090810190601f1680156101285780820380516001836020036101000a031916815260200191505b5094505050505060405180910390f35b6100796004803603602081101561014e57600080fd5b81019060208101813564010000000081111561016957600080fd5b82018360208201111561017b57600080fd5b8035906020019184600183028401116401000000008311171561019d57600080fd5b509092509050610327565b6101ce600480360360208110156101be57600080fd5b50356001600160a01b03166103d2565b604080519115158252519081900360200190f35b3360009081526001602052604090205460ff16156101ff57600080fd5b60008111801561021157506003548111155b61021a57600080fd5b336000908152600160208181526040808420805460ff19168417905584845260029182905280842090910180549092019091555182917ffff3c900d938d21d0990d786e819f29b8d05c1ef587b462b939609625b684b1691a250565b60035481565b60026020818152600092835260409283902080546001808301805487519281161561010002600019011695909504601f81018590048502820185019096528581529094919390929091908301828280156103175780601f106102ec57610100808354040283529160200191610317565b820191906000526020600020905b8154815290600101906020018083116102fa57829003601f168201915b5050505050908060020154905083565b6000546001600160a01b0316331461033e57600080fd5b60038054600101908190556040805160608101825291825280516020601f850181900481028201810190925283815281830191859085908190840183828082843760009201829052509385525050506020918201819052600354815260028252604090208251815582820151805191926103c0926001850192909101906103e7565b50604082015181600201559050505050565b60016020526000908152604090205460ff1681565b828054600181600116156101000203166002900490600052602060002090601f016020900481019282601f1061042857805160ff1916838001178555610455565b82800160010185558215610455579182015b8281111561045557825182559160200191906001019061043a565b50610461929150610465565b5090565b61047f91905b80821115610461576000815560010161046b565b9056fea265627a7a72315820b2036dfb776ed8b14a52a9058da0fa8ef9610deb303a12faeab39c68343117c864736f6c63430005100032a265627a7a72315820534737ff4b0e933176b47a5494a4dee04ba6d66246bbd71d9ba30258a4a5a58e64736f6c63430005100032",
  "source": "pragma solidity ^0.5.16;\nimport './Election.sol';\ncontract Voting {\n   struct VotingEvents{\n       uint eventId;\n       string eventName;\n       address smartContractId;\n   }\n   \n   mapping(uint=>VotingEvents) public events_array;\n   uint eventsCount;\n   function addNewEvent(string calldata _name) external {\n       eventsCount++;\n       address admin=msg.sender;\n       Election newEvent = new Election(admin);\n       address e1= address (newEvent);\n       events_array[eventsCount]=VotingEvents(eventsCount,_name,e1);\n   }\n   \n}",
  "sourcePath": "/Users/nitinchauhan/voting-block/contracts/VotingContract.sol",
  "compiler": {
    "name": "solc",
    "version": "0.5.16+commit.9c3226ce.Emscripten.clang"
  },
  "schemaVersion": "3.3.1",
  "updatedAt": "2020-12-25T17:47:55.092Z",
  "devdoc": {
    "methods": {}
  },
  "userdoc": {
    "methods": {}
  }
}