{
  "contractName": "VotingContract",
  "abi": [
    {
      "anonymous": false,
      "inputs": [
        {
          "indexed": false,
          "internalType": "uint256",
          "name": "id",
          "type": "uint256"
        }
      ],
      "name": "newEventCreated",
      "type": "event"
    },
    {
      "constant": true,
      "inputs": [
        {
          "internalType": "uint256",
          "name": "",
          "type": "uint256"
        }
      ],
      "name": "events_array",
      "outputs": [
        {
          "internalType": "uint256",
          "name": "eventId",
          "type": "uint256"
        },
        {
          "internalType": "string",
          "name": "eventName",
          "type": "string"
        },
        {
          "internalType": "address",
          "name": "smartContractId",
          "type": "address"
        }
      ],
      "payable": false,
      "stateMutability": "view",
      "type": "function"
    },
    {
      "constant": false,
      "inputs": [
        {
          "internalType": "string",
          "name": "_name",
          "type": "string"
        }
      ],
      "name": "addNewEvent",
      "outputs": [],
      "payable": false,
      "stateMutability": "nonpayable",
      "type": "function"
    }
  ],
  "bytecode": "0x608060405234801561001057600080fd5b50610a9a806100206000396000f3fe608060405234801561001057600080fd5b50600436106100365760003560e01c80632e2f94521461003b578063f8c267c4146100f0575b600080fd5b6100586004803603602081101561005157600080fd5b5035610162565b6040518084815260200180602001836001600160a01b03166001600160a01b03168152602001828103825284818151815260200191508051906020019080838360005b838110156100b357818101518382015260200161009b565b50505050905090810190601f1680156100e05780820380516001836020036101000a031916815260200191505b5094505050505060405180910390f35b6101606004803603602081101561010657600080fd5b81019060208101813564010000000081111561012157600080fd5b82018360208201111561013357600080fd5b8035906020019184600183028401116401000000008311171561015557600080fd5b509092509050610215565b005b600060208181529181526040908190208054600180830180548551600293821615610100026000190190911692909204601f81018790048702830187019095528482529194929390928301828280156101fc5780601f106101d1576101008083540402835291602001916101fc565b820191906000526020600020905b8154815290600101906020018083116101df57829003601f168201915b505050600290930154919250506001600160a01b031683565b6001805481019055604051339060009082906102309061034f565b6001600160a01b03909116815260405190819003602001906000f08015801561025d573d6000803e3d6000fd5b50905060008190506040518060600160405280600154815260200186868080601f01602080910402602001604051908101604052809392919081815260200183838082843760009201829052509385525050506001600160a01b03841660209283015260018054825281835260409091208351815583830151805191936102e99385019291019061035c565b50604091820151600290910180546001600160a01b039092166001600160a01b0319909216919091179055600154815190815290517f17047519056aece8b494ef73afcb4a4a01d8bed7a3a73beeffb40d76ad1234b99181900360200190a15050505050565b61066e806103f883390190565b828054600181600116156101000203166002900490600052602060002090601f016020900481019282601f1061039d57805160ff19168380011785556103ca565b828001600101855582156103ca579182015b828111156103ca5782518255916020019190600101906103af565b506103d69291506103da565b5090565b6103f491905b808211156103d657600081556001016103e0565b9056fe608060405234801561001057600080fd5b5060405161066e38038061066e8339818101604052602081101561003357600080fd5b5051600080546001600160a01b0390921661010002610100600160a81b03199092169190911790556106048061006a6000396000f3fe608060405234801561001057600080fd5b50600436106100885760003560e01c80633c62e3c11161005b5780633c62e3c114610185578063462e91ec146101a4578063a3ec138d14610214578063f851a4401461023a57610088565b80630121b93f1461008d5780632d35a8a2146100ac5780633453cba9146100c65780633477ee2e146100e2575b600080fd5b6100aa600480360360208110156100a357600080fd5b503561025e565b005b6100b4610306565b60408051918252519081900360200190f35b6100ce61030c565b604080519115158252519081900360200190f35b6100ff600480360360208110156100f857600080fd5b5035610315565b6040518084815260200180602001838152602001828103825284818151815260200191508051906020019080838360005b83811015610148578181015183820152602001610130565b50505050905090810190601f1680156101755780820380516001836020036101000a031916815260200191505b5094505050505060405180910390f35b6100aa6004803603602081101561019b57600080fd5b503515156103c0565b6100aa600480360360208110156101ba57600080fd5b8101906020810181356401000000008111156101d557600080fd5b8201836020820111156101e757600080fd5b8035906020019184600183028401116401000000008311171561020957600080fd5b509092509050610428565b6100ce6004803603602081101561022a57600080fd5b50356001600160a01b031661050b565b610242610520565b604080516001600160a01b039092168252519081900360200190f35b60005460ff16151560011461027257600080fd5b3360009081526001602052604090205460ff161561028f57600080fd5b6000811180156102a157506003548111155b6102aa57600080fd5b336000908152600160208181526040808420805460ff19168417905584845260029182905280842090910180549092019091555182917ffff3c900d938d21d0990d786e819f29b8d05c1ef587b462b939609625b684b1691a250565b60035481565b60005460ff1681565b60026020818152600092835260409283902080546001808301805487519281161561010002600019011695909504601f81018590048502820185019096528581529094919390929091908301828280156103b05780601f10610385576101008083540402835291602001916103b0565b820191906000526020600020905b81548152906001019060200180831161039357829003601f168201915b5050505050908060020154905083565b60005461010090046001600160a01b031633146103dc57600080fd5b6000805460ff191682151517908190556040805160ff90921615158252517f59e1c055b11194dcdfb37c0c467e84048c0a2931342ec169e6a5cc48009a8151916020908290030190a150565b60005461010090046001600160a01b0316331461044457600080fd5b60038054600101908190556040805160608101825291825280516020601f850181900481028201810190925283815281830191859085908190840183828082843760009201829052509385525050506020918201819052600354815260028252604090208251815582820151805191926104c692600185019290910190610534565b50604091820151600290910155600354815190815290517f58b6df71f7457b483a796c1077e42ea827427ecccb2156d374fe8e03524ccdc59181900360200190a15050565b60016020526000908152604090205460ff1681565b60005461010090046001600160a01b031681565b828054600181600116156101000203166002900490600052602060002090601f016020900481019282601f1061057557805160ff19168380011785556105a2565b828001600101855582156105a2579182015b828111156105a2578251825591602001919060010190610587565b506105ae9291506105b2565b5090565b6105cc91905b808211156105ae57600081556001016105b8565b9056fea265627a7a72315820808f0ce03cbffe154a078a593fd2f4cbe91788791a64b1a46d0cf65037e9a73664736f6c63430005100032a265627a7a72315820e5254fbfd727f5a182932ce31be1c9aa9b0c29f7709331994da3ac439f6a003564736f6c63430005100032",
  "source": "pragma solidity ^0.5.16;\nimport './Election.sol';\ncontract VotingContract {\n   struct VotingEvents{\n       uint eventId;\n       string eventName;\n       address smartContractId;\n   }\n   \n   mapping(uint=>VotingEvents) public events_array;\n   uint eventsCount;\n   event newEventCreated (uint id);\n   function addNewEvent(string calldata _name) external {\n       eventsCount++;\n       address admin=msg.sender;\n       Election newEvent = new Election(admin);\n       address e1= address (newEvent);\n       events_array[eventsCount]=VotingEvents(eventsCount,_name,e1);\n       emit  newEventCreated(eventsCount);\n   }\n   \n}",
  "sourcePath": "/Users/nitinchauhan/voting-block/contracts/VotingContract.sol",
  "compiler": {
    "name": "solc",
    "version": "0.5.16+commit.9c3226ce.Emscripten.clang"
  },
  "schemaVersion": "3.3.1",
  "updatedAt": "2020-12-27T13:13:22.987Z",
  "networkType": "ethereum",
  "devdoc": {
    "methods": {}
  },
  "userdoc": {
    "methods": {}
  }
}